{"abi":[{"type":"constructor","inputs":[],"stateMutability":"nonpayable"},{"type":"receive","stateMutability":"payable"},{"type":"function","name":"RATE","inputs":[],"outputs":[{"name":"","type":"uint256","internalType":"uint256"}],"stateMutability":"view"},{"type":"function","name":"allowance","inputs":[{"name":"owner","type":"address","internalType":"address"},{"name":"spender","type":"address","internalType":"address"}],"outputs":[{"name":"","type":"uint256","internalType":"uint256"}],"stateMutability":"view"},{"type":"function","name":"approve","inputs":[{"name":"spender","type":"address","internalType":"address"},{"name":"value","type":"uint256","internalType":"uint256"}],"outputs":[{"name":"","type":"bool","internalType":"bool"}],"stateMutability":"nonpayable"},{"type":"function","name":"balanceOf","inputs":[{"name":"account","type":"address","internalType":"address"}],"outputs":[{"name":"","type":"uint256","internalType":"uint256"}],"stateMutability":"view"},{"type":"function","name":"decimals","inputs":[],"outputs":[{"name":"","type":"uint8","internalType":"uint8"}],"stateMutability":"view"},{"type":"function","name":"name","inputs":[],"outputs":[{"name":"","type":"string","internalType":"string"}],"stateMutability":"view"},{"type":"function","name":"owner","inputs":[],"outputs":[{"name":"","type":"address","internalType":"address"}],"stateMutability":"view"},{"type":"function","name":"symbol","inputs":[],"outputs":[{"name":"","type":"string","internalType":"string"}],"stateMutability":"view"},{"type":"function","name":"totalSupply","inputs":[],"outputs":[{"name":"","type":"uint256","internalType":"uint256"}],"stateMutability":"view"},{"type":"function","name":"transfer","inputs":[{"name":"to","type":"address","internalType":"address"},{"name":"value","type":"uint256","internalType":"uint256"}],"outputs":[{"name":"","type":"bool","internalType":"bool"}],"stateMutability":"nonpayable"},{"type":"function","name":"transferFrom","inputs":[{"name":"from","type":"address","internalType":"address"},{"name":"to","type":"address","internalType":"address"},{"name":"value","type":"uint256","internalType":"uint256"}],"outputs":[{"name":"","type":"bool","internalType":"bool"}],"stateMutability":"nonpayable"},{"type":"function","name":"withdraw","inputs":[],"outputs":[],"stateMutability":"nonpayable"},{"type":"event","name":"Approval","inputs":[{"name":"owner","type":"address","indexed":true,"internalType":"address"},{"name":"spender","type":"address","indexed":true,"internalType":"address"},{"name":"value","type":"uint256","indexed":false,"internalType":"uint256"}],"anonymous":false},{"type":"event","name":"Transfer","inputs":[{"name":"from","type":"address","indexed":true,"internalType":"address"},{"name":"to","type":"address","indexed":true,"internalType":"address"},{"name":"value","type":"uint256","indexed":false,"internalType":"uint256"}],"anonymous":false},{"type":"error","name":"ERC20InsufficientAllowance","inputs":[{"name":"spender","type":"address","internalType":"address"},{"name":"allowance","type":"uint256","internalType":"uint256"},{"name":"needed","type":"uint256","internalType":"uint256"}]},{"type":"error","name":"ERC20InsufficientBalance","inputs":[{"name":"sender","type":"address","internalType":"address"},{"name":"balance","type":"uint256","internalType":"uint256"},{"name":"needed","type":"uint256","internalType":"uint256"}]},{"type":"error","name":"ERC20InvalidApprover","inputs":[{"name":"approver","type":"address","internalType":"address"}]},{"type":"error","name":"ERC20InvalidReceiver","inputs":[{"name":"receiver","type":"address","internalType":"address"}]},{"type":"error","name":"ERC20InvalidSender","inputs":[{"name":"sender","type":"address","internalType":"address"}]},{"type":"error","name":"ERC20InvalidSpender","inputs":[{"name":"spender","type":"address","internalType":"address"}]},{"type":"error","name":"TUSDTestToken__Send","inputs":[]}],"bytecode":{"object":"0x60a060405234801561000f575f5ffd5b506040518060400160405280600881526020016715195cdd081554d160c21b81525060405180604001604052806004815260200163151554d160e21b815250816003908161005d919061013f565b50600461006a828261013f565b5050600580546001600160a01b0319163317905550610087601290565b61009290600a6102f2565b61009f90620186a0610307565b60805261031e565b634e487b7160e01b5f52604160045260245ffd5b600181811c908216806100cf57607f821691505b6020821081036100ed57634e487b7160e01b5f52602260045260245ffd5b50919050565b601f82111561013a57805f5260205f20601f840160051c810160208510156101185750805b601f840160051c820191505b81811015610137575f8155600101610124565b50505b505050565b81516001600160401b03811115610158576101586100a7565b61016c8161016684546100bb565b846100f3565b6020601f82116001811461019e575f83156101875750848201515b5f19600385901b1c1916600184901b178455610137565b5f84815260208120601f198516915b828110156101cd57878501518255602094850194600190920191016101ad565b50848210156101ea57868401515f19600387901b60f8161c191681555b50505050600190811b01905550565b634e487b7160e01b5f52601160045260245ffd5b6001815b60018411156102485780850481111561022c5761022c6101f9565b600184161561023a57908102905b60019390931c928002610211565b935093915050565b5f8261025e575060016102ec565b8161026a57505f6102ec565b8160018114610280576002811461028a576102a6565b60019150506102ec565b60ff84111561029b5761029b6101f9565b50506001821b6102ec565b5060208310610133831016604e8410600b84101617156102c9575081810a6102ec565b6102d55f19848461020d565b805f19048211156102e8576102e86101f9565b0290505b92915050565b5f61030060ff841683610250565b9392505050565b80820281158282048414176102ec576102ec6101f9565b60805161096061033c5f395f818160dc01526101f301526109605ff3fe6080604052600436106100a8575f3560e01c8063664e970411610062578063664e9704146101e257806370a08231146102155780638da5cb5b1461024957806395d89b4114610280578063a9059cbb14610294578063dd62ed3e146102b3575f5ffd5b806306fdde031461011d578063095ea7b31461014757806318160ddd1461017657806323b872dd14610194578063313ce567146101b35780633ccfd60b146101ce575f5ffd5b36610119575f34116100cd5760405163fb15cf8f60e01b815260040160405180910390fd5b5f670de0b6b3a76400006101017f0000000000000000000000000000000000000000000000000000000000000000346107a6565b61010b91906107bd565b905061011733826102f7565b005b5f5ffd5b348015610128575f5ffd5b50610131610334565b60405161013e91906107dc565b60405180910390f35b348015610152575f5ffd5b5061016661016136600461082c565b6103c4565b604051901515815260200161013e565b348015610181575f5ffd5b506002545b60405190815260200161013e565b34801561019f575f5ffd5b506101666101ae366004610854565b6103dd565b3480156101be575f5ffd5b506040516012815260200161013e565b3480156101d9575f5ffd5b50610117610400565b3480156101ed575f5ffd5b506101867f000000000000000000000000000000000000000000000000000000000000000081565b348015610220575f5ffd5b5061018661022f36600461088e565b6001600160a01b03165f9081526020819052604090205490565b348015610254575f5ffd5b50600554610268906001600160a01b031681565b6040516001600160a01b03909116815260200161013e565b34801561028b575f5ffd5b50610131610493565b34801561029f575f5ffd5b506101666102ae36600461082c565b6104a2565b3480156102be575f5ffd5b506101866102cd3660046108ae565b6001600160a01b039182165f90815260016020908152604080832093909416825291909152205490565b6001600160a01b0382166103255760405163ec442f0560e01b81525f60048201526024015b60405180910390fd5b6103305f83836104af565b5050565b606060038054610343906108df565b80601f016020809104026020016040519081016040528092919081815260200182805461036f906108df565b80156103ba5780601f10610391576101008083540402835291602001916103ba565b820191905f5260205f20905b81548152906001019060200180831161039d57829003601f168201915b5050505050905090565b5f336103d18185856105d5565b60019150505b92915050565b5f336103ea8582856105e7565b6103f5858585610663565b506001949350505050565b6005546001600160a01b0316331461045a5760405162461bcd60e51b815260206004820152601760248201527f4f6e6c79206f776e65722063616e207769746864726177000000000000000000604482015260640161031c565b6005546040516001600160a01b03909116904780156108fc02915f818181858888f19350505050158015610490573d5f5f3e3d5ffd5b50565b606060048054610343906108df565b5f336103d1818585610663565b6001600160a01b0383166104d9578060025f8282546104ce9190610917565b909155506105499050565b6001600160a01b0383165f908152602081905260409020548181101561052b5760405163391434e360e21b81526001600160a01b0385166004820152602481018290526044810183905260640161031c565b6001600160a01b0384165f9081526020819052604090209082900390555b6001600160a01b03821661056557600280548290039055610583565b6001600160a01b0382165f9081526020819052604090208054820190555b816001600160a01b0316836001600160a01b03167fddf252ad1be2c89b69c2b068fc378daa952ba7f163c4a11628f55a4df523b3ef836040516105c891815260200190565b60405180910390a3505050565b6105e283838360016106c0565b505050565b6001600160a01b038381165f908152600160209081526040808320938616835292905220545f1981101561065d578181101561064f57604051637dc7a0d960e11b81526001600160a01b0384166004820152602481018290526044810183905260640161031c565b61065d84848484035f6106c0565b50505050565b6001600160a01b03831661068c57604051634b637e8f60e11b81525f600482015260240161031c565b6001600160a01b0382166106b55760405163ec442f0560e01b81525f600482015260240161031c565b6105e28383836104af565b6001600160a01b0384166106e95760405163e602df0560e01b81525f600482015260240161031c565b6001600160a01b03831661071257604051634a1406b160e11b81525f600482015260240161031c565b6001600160a01b038085165f908152600160209081526040808320938716835292905220829055801561065d57826001600160a01b0316846001600160a01b03167f8c5be1e5ebec7d5bd14f71427d1e84f3dd0314c0f7b2291e5b200ac8c7c3b9258460405161078491815260200190565b60405180910390a350505050565b634e487b7160e01b5f52601160045260245ffd5b80820281158282048414176103d7576103d7610792565b5f826107d757634e487b7160e01b5f52601260045260245ffd5b500490565b602081525f82518060208401528060208501604085015e5f604082850101526040601f19601f83011684010191505092915050565b80356001600160a01b0381168114610827575f5ffd5b919050565b5f5f6040838503121561083d575f5ffd5b61084683610811565b946020939093013593505050565b5f5f5f60608486031215610866575f5ffd5b61086f84610811565b925061087d60208501610811565b929592945050506040919091013590565b5f6020828403121561089e575f5ffd5b6108a782610811565b9392505050565b5f5f604083850312156108bf575f5ffd5b6108c883610811565b91506108d660208401610811565b90509250929050565b600181811c908216806108f357607f821691505b60208210810361091157634e487b7160e01b5f52602260045260245ffd5b50919050565b808201808211156103d7576103d761079256fea26469706673582212202fbe551dd14e508b502adc878f083eb64ea6db208e2ae71e190271d87d8050cc64736f6c634300081b0033","linkReferences":{}},"methodIdentifiers":{"RATE()":"664e9704","allowance(address,address)":"dd62ed3e","approve(address,uint256)":"095ea7b3","balanceOf(address)":"70a08231","decimals()":"313ce567","name()":"06fdde03","owner()":"8da5cb5b","symbol()":"95d89b41","totalSupply()":"18160ddd","transfer(address,uint256)":"a9059cbb","transferFrom(address,address,uint256)":"23b872dd","withdraw()":"3ccfd60b"},"id":39}