{"abi":[{"type":"constructor","inputs":[{"name":"_exchange","type":"address","internalType":"address"}],"stateMutability":"nonpayable"},{"type":"function","name":"approve","inputs":[{"name":"to","type":"address","internalType":"address"},{"name":"tokenId","type":"uint256","internalType":"uint256"}],"outputs":[],"stateMutability":"nonpayable"},{"type":"function","name":"balanceOf","inputs":[{"name":"owner","type":"address","internalType":"address"}],"outputs":[{"name":"","type":"uint256","internalType":"uint256"}],"stateMutability":"view"},{"type":"function","name":"burn","inputs":[{"name":"tokenId","type":"uint256","internalType":"uint256"}],"outputs":[],"stateMutability":"nonpayable"},{"type":"function","name":"exchange","inputs":[],"outputs":[{"name":"","type":"address","internalType":"address"}],"stateMutability":"view"},{"type":"function","name":"getApproved","inputs":[{"name":"tokenId","type":"uint256","internalType":"uint256"}],"outputs":[{"name":"","type":"address","internalType":"address"}],"stateMutability":"view"},{"type":"function","name":"isApprovedForAll","inputs":[{"name":"owner","type":"address","internalType":"address"},{"name":"operator","type":"address","internalType":"address"}],"outputs":[{"name":"","type":"bool","internalType":"bool"}],"stateMutability":"view"},{"type":"function","name":"mint","inputs":[{"name":"to","type":"address","internalType":"address"},{"name":"symbol","type":"string","internalType":"string"},{"name":"lower","type":"uint256","internalType":"uint256"},{"name":"upper","type":"uint256","internalType":"uint256"},{"name":"amount","type":"uint256","internalType":"uint256"},{"name":"deadline","type":"uint256","internalType":"uint256"},{"name":"datenow","type":"uint256","internalType":"uint256"},{"name":"ownerfee","type":"uint256","internalType":"uint256"}],"outputs":[],"stateMutability":"nonpayable"},{"type":"function","name":"name","inputs":[],"outputs":[{"name":"","type":"string","internalType":"string"}],"stateMutability":"view"},{"type":"function","name":"nextId","inputs":[],"outputs":[{"name":"","type":"uint256","internalType":"uint256"}],"stateMutability":"view"},{"type":"function","name":"ownerOf","inputs":[{"name":"tokenId","type":"uint256","internalType":"uint256"}],"outputs":[{"name":"","type":"address","internalType":"address"}],"stateMutability":"view"},{"type":"function","name":"safeTransferFrom","inputs":[{"name":"from","type":"address","internalType":"address"},{"name":"to","type":"address","internalType":"address"},{"name":"tokenId","type":"uint256","internalType":"uint256"}],"outputs":[],"stateMutability":"nonpayable"},{"type":"function","name":"safeTransferFrom","inputs":[{"name":"from","type":"address","internalType":"address"},{"name":"to","type":"address","internalType":"address"},{"name":"tokenId","type":"uint256","internalType":"uint256"},{"name":"data","type":"bytes","internalType":"bytes"}],"outputs":[],"stateMutability":"nonpayable"},{"type":"function","name":"setApprovalForAll","inputs":[{"name":"operator","type":"address","internalType":"address"},{"name":"approved","type":"bool","internalType":"bool"}],"outputs":[],"stateMutability":"nonpayable"},{"type":"function","name":"supportsInterface","inputs":[{"name":"interfaceId","type":"bytes4","internalType":"bytes4"}],"outputs":[{"name":"","type":"bool","internalType":"bool"}],"stateMutability":"view"},{"type":"function","name":"symbol","inputs":[],"outputs":[{"name":"","type":"string","internalType":"string"}],"stateMutability":"view"},{"type":"function","name":"tokenByIndex","inputs":[{"name":"index","type":"uint256","internalType":"uint256"}],"outputs":[{"name":"","type":"uint256","internalType":"uint256"}],"stateMutability":"view"},{"type":"function","name":"tokenOfOwnerByIndex","inputs":[{"name":"owner","type":"address","internalType":"address"},{"name":"index","type":"uint256","internalType":"uint256"}],"outputs":[{"name":"","type":"uint256","internalType":"uint256"}],"stateMutability":"view"},{"type":"function","name":"tokenURI","inputs":[{"name":"tokenId","type":"uint256","internalType":"uint256"}],"outputs":[{"name":"","type":"string","internalType":"string"}],"stateMutability":"view"},{"type":"function","name":"totalSupply","inputs":[],"outputs":[{"name":"","type":"uint256","internalType":"uint256"}],"stateMutability":"view"},{"type":"function","name":"transferFrom","inputs":[{"name":"from","type":"address","internalType":"address"},{"name":"to","type":"address","internalType":"address"},{"name":"tokenId","type":"uint256","internalType":"uint256"}],"outputs":[],"stateMutability":"nonpayable"},{"type":"event","name":"Approval","inputs":[{"name":"owner","type":"address","indexed":true,"internalType":"address"},{"name":"approved","type":"address","indexed":true,"internalType":"address"},{"name":"tokenId","type":"uint256","indexed":true,"internalType":"uint256"}],"anonymous":false},{"type":"event","name":"ApprovalForAll","inputs":[{"name":"owner","type":"address","indexed":true,"internalType":"address"},{"name":"operator","type":"address","indexed":true,"internalType":"address"},{"name":"approved","type":"bool","indexed":false,"internalType":"bool"}],"anonymous":false},{"type":"event","name":"BetBurn","inputs":[{"name":"id","type":"uint256","indexed":true,"internalType":"uint256"}],"anonymous":false},{"type":"event","name":"BetCreated","inputs":[{"name":"user","type":"address","indexed":true,"internalType":"address"},{"name":"id","type":"uint256","indexed":true,"internalType":"uint256"},{"name":"symbol","type":"string","indexed":false,"internalType":"string"},{"name":"lower","type":"uint256","indexed":false,"internalType":"uint256"},{"name":"upper","type":"uint256","indexed":false,"internalType":"uint256"},{"name":"amount","type":"uint256","indexed":false,"internalType":"uint256"},{"name":"deadline","type":"uint256","indexed":false,"internalType":"uint256"},{"name":"datenow","type":"uint256","indexed":false,"internalType":"uint256"},{"name":"ownerfee","type":"uint256","indexed":false,"internalType":"uint256"}],"anonymous":false},{"type":"event","name":"Transfer","inputs":[{"name":"from","type":"address","indexed":true,"internalType":"address"},{"name":"to","type":"address","indexed":true,"internalType":"address"},{"name":"tokenId","type":"uint256","indexed":true,"internalType":"uint256"}],"anonymous":false},{"type":"error","name":"Crypto_Stock_Exchange__NotAuthorized","inputs":[]},{"type":"error","name":"ERC721EnumerableForbiddenBatchMint","inputs":[]},{"type":"error","name":"ERC721IncorrectOwner","inputs":[{"name":"sender","type":"address","internalType":"address"},{"name":"tokenId","type":"uint256","internalType":"uint256"},{"name":"owner","type":"address","internalType":"address"}]},{"type":"error","name":"ERC721InsufficientApproval","inputs":[{"name":"operator","type":"address","internalType":"address"},{"name":"tokenId","type":"uint256","internalType":"uint256"}]},{"type":"error","name":"ERC721InvalidApprover","inputs":[{"name":"approver","type":"address","internalType":"address"}]},{"type":"error","name":"ERC721InvalidOperator","inputs":[{"name":"operator","type":"address","internalType":"address"}]},{"type":"error","name":"ERC721InvalidOwner","inputs":[{"name":"owner","type":"address","internalType":"address"}]},{"type":"error","name":"ERC721InvalidReceiver","inputs":[{"name":"receiver","type":"address","internalType":"address"}]},{"type":"error","name":"ERC721InvalidSender","inputs":[{"name":"sender","type":"address","internalType":"address"}]},{"type":"error","name":"ERC721NonexistentToken","inputs":[{"name":"tokenId","type":"uint256","internalType":"uint256"}]},{"type":"error","name":"ERC721OutOfBoundsIndex","inputs":[{"name":"owner","type":"address","internalType":"address"},{"name":"index","type":"uint256","internalType":"uint256"}]}],"bytecode":{"object":"0x60a060405234801561000f575f5ffd5b5060405161183c38038061183c83398101604081905261002e916100a0565b6040518060400160405280600d81526020016c14dd1bd8dac810995d08139195609a1b8152506040518060400160405280600481526020016314d0915560e21b815250815f908161007f9190610165565b50600161008c8282610165565b5050506001600160a01b031660805261021f565b5f602082840312156100b0575f5ffd5b81516001600160a01b03811681146100c6575f5ffd5b9392505050565b634e487b7160e01b5f52604160045260245ffd5b600181811c908216806100f557607f821691505b60208210810361011357634e487b7160e01b5f52602260045260245ffd5b50919050565b601f82111561016057805f5260205f20601f840160051c8101602085101561013e5750805b601f840160051c820191505b8181101561015d575f815560010161014a565b50505b505050565b81516001600160401b0381111561017e5761017e6100cd565b6101928161018c84546100e1565b84610119565b6020601f8211600181146101c4575f83156101ad5750848201515b5f19600385901b1c1916600184901b17845561015d565b5f84815260208120601f198516915b828110156101f357878501518255602094850194600190920191016101d3565b508482101561021057868401515f19600387901b60f8161c191681555b50505050600190811b01905550565b6080516115f76102455f395f81816102a1015281816104e0015261060301526115f75ff3fe608060405234801561000f575f5ffd5b5060043610610127575f3560e01c806361b8ce8c116100a9578063a22cb4651161006e578063a22cb46514610263578063b88d4fde14610276578063c87b56dd14610289578063d2f7265a1461029c578063e985e9c5146102c3575f5ffd5b806361b8ce8c146102195780636352211e1461022257806370a0823114610235578063930b91d71461024857806395d89b411461025b575f5ffd5b806323b872dd116100ef57806323b872dd146101ba5780632f745c59146101cd57806342842e0e146101e057806342966c68146101f35780634f6ccce714610206575f5ffd5b806301ffc9a71461012b57806306fdde0314610153578063081812fc14610168578063095ea7b31461019357806318160ddd146101a8575b5f5ffd5b61013e610139366004611130565b6102d6565b60405190151581526020015b60405180910390f35b61015b610300565b60405161014a9190611179565b61017b61017636600461118b565b61038f565b6040516001600160a01b03909116815260200161014a565b6101a66101a13660046111bd565b6103b6565b005b6008545b60405190815260200161014a565b6101a66101c83660046111e5565b6103c5565b6101ac6101db3660046111bd565b610453565b6101a66101ee3660046111e5565b6104b6565b6101a661020136600461118b565b6104d5565b6101ac61021436600461118b565b610554565b6101ac600a5481565b61017b61023036600461118b565b6105a9565b6101ac61024336600461121f565b6105b3565b6101a6610256366004611238565b6105f8565b61015b6106be565b6101a66102713660046112e8565b6106cd565b6101a6610284366004611335565b6106d8565b61015b61029736600461118b565b6106f0565b61017b7f000000000000000000000000000000000000000000000000000000000000000081565b61013e6102d1366004611412565b610761565b5f6001600160e01b0319821663780e9d6360e01b14806102fa57506102fa8261078e565b92915050565b60605f805461030e90611443565b80601f016020809104026020016040519081016040528092919081815260200182805461033a90611443565b80156103855780601f1061035c57610100808354040283529160200191610385565b820191905f5260205f20905b81548152906001019060200180831161036857829003601f168201915b5050505050905090565b5f610399826107dd565b505f828152600460205260409020546001600160a01b03166102fa565b6103c1828233610815565b5050565b6001600160a01b0382166103f357604051633250574960e11b81525f60048201526024015b60405180910390fd5b5f6103ff838333610822565b9050836001600160a01b0316816001600160a01b03161461044d576040516364283d7b60e01b81526001600160a01b03808616600483015260248201849052821660448201526064016103ea565b50505050565b5f61045d836105b3565b821061048e5760405163295f44f760e21b81526001600160a01b0384166004820152602481018390526044016103ea565b506001600160a01b03919091165f908152600660209081526040808320938352929052205490565b6104d083838360405180602001604052805f8152506106d8565b505050565b336001600160a01b037f0000000000000000000000000000000000000000000000000000000000000000161461051e5760405163140bd8bf60e31b815260040160405180910390fd5b610527816108f5565b60405181907f0a2f1f0e5c21d886a95d01b22ccafbeeda741e81f2b7d73a19b8783c1f942392905f90a250565b5f61055e60085490565b82106105865760405163295f44f760e21b81525f6004820152602481018390526044016103ea565b600882815481106105995761059961147b565b905f5260205f2001549050919050565b5f6102fa826107dd565b5f6001600160a01b0382166105dd576040516322718ad960e21b81525f60048201526024016103ea565b506001600160a01b03165f9081526003602052604090205490565b336001600160a01b037f000000000000000000000000000000000000000000000000000000000000000016146106415760405163140bd8bf60e31b815260040160405180910390fd5b61064d89600a5461092d565b600a54896001600160a01b03167f618bf21f96fd817c07ff550429b8dc83b4ea251b6115d583bbe21aafd345f8188a8a8a8a8a8a8a8a60405161069798979695949392919061148f565b60405180910390a3600a8054905f6106ae83611500565b9190505550505050505050505050565b60606001805461030e90611443565b6103c1338383610946565b6106e38484846103c5565b61044d33858585856109e4565b60606106fb826107dd565b505f61071160408051602081019091525f815290565b90505f81511161072f5760405180602001604052805f81525061075a565b8061073984610b0c565b60405160200161074a92919061152f565b6040516020818303038152906040525b9392505050565b6001600160a01b039182165f90815260056020908152604080832093909416825291909152205460ff1690565b5f6001600160e01b031982166380ac58cd60e01b14806107be57506001600160e01b03198216635b5e139f60e01b145b806102fa57506301ffc9a760e01b6001600160e01b03198316146102fa565b5f818152600260205260408120546001600160a01b0316806102fa57604051637e27328960e01b8152600481018490526024016103ea565b6104d08383836001610b9c565b5f5f61082f858585610ca0565b90506001600160a01b03811661088b5761088684600880545f838152600960205260408120829055600182018355919091527ff3f7a9fe364faab93b216da50a3214154f22a0a2b415b23a84c8169e8b636ee30155565b6108ae565b846001600160a01b0316816001600160a01b0316146108ae576108ae8185610d92565b6001600160a01b0385166108ca576108c584610e0f565b6108ed565b846001600160a01b0316816001600160a01b0316146108ed576108ed8585610eb6565b949350505050565b5f6109015f835f610822565b90506001600160a01b0381166103c157604051637e27328960e01b8152600481018390526024016103ea565b6103c1828260405180602001604052805f815250610f04565b6001600160a01b03821661097857604051630b61174360e31b81526001600160a01b03831660048201526024016103ea565b6001600160a01b038381165f81815260056020908152604080832094871680845294825291829020805460ff191686151590811790915591519182527f17307eab39ab6107e8899845ad3d59bd9653f200f220920489ca2b5937696c31910160405180910390a3505050565b6001600160a01b0383163b15610b0557604051630a85bd0160e11b81526001600160a01b0384169063150b7a0290610a26908890889087908790600401611543565b6020604051808303815f875af1925050508015610a60575060408051601f3d908101601f19168201909252610a5d9181019061157f565b60015b610ac7573d808015610a8d576040519150601f19603f3d011682016040523d82523d5f602084013e610a92565b606091505b5080515f03610abf57604051633250574960e11b81526001600160a01b03851660048201526024016103ea565b805181602001fd5b6001600160e01b03198116630a85bd0160e11b14610b0357604051633250574960e11b81526001600160a01b03851660048201526024016103ea565b505b5050505050565b60605f610b1883610f1b565b60010190505f8167ffffffffffffffff811115610b3757610b37611321565b6040519080825280601f01601f191660200182016040528015610b61576020820181803683370190505b5090508181016020015b5f19016f181899199a1a9b1b9c1cb0b131b232b360811b600a86061a8153600a8504945084610b6b57509392505050565b8080610bb057506001600160a01b03821615155b15610c71575f610bbf846107dd565b90506001600160a01b03831615801590610beb5750826001600160a01b0316816001600160a01b031614155b8015610bfe5750610bfc8184610761565b155b15610c275760405163a9fbf51f60e01b81526001600160a01b03841660048201526024016103ea565b8115610c6f5783856001600160a01b0316826001600160a01b03167f8c5be1e5ebec7d5bd14f71427d1e84f3dd0314c0f7b2291e5b200ac8c7c3b92560405160405180910390a45b505b50505f90815260046020526040902080546001600160a01b0319166001600160a01b0392909216919091179055565b5f828152600260205260408120546001600160a01b0390811690831615610ccc57610ccc818486610ff2565b6001600160a01b03811615610d0657610ce75f855f5f610b9c565b6001600160a01b0381165f90815260036020526040902080545f190190555b6001600160a01b03851615610d34576001600160a01b0385165f908152600360205260409020805460010190555b5f8481526002602052604080822080546001600160a01b0319166001600160a01b0389811691821790925591518793918516917fddf252ad1be2c89b69c2b068fc378daa952ba7f163c4a11628f55a4df523b3ef91a4949350505050565b5f610d9c836105b3565b5f838152600760209081526040808320546001600160a01b0388168452600690925290912091925090818314610df1575f83815260208281526040808320548584528184208190558352600790915290208290555b5f938452600760209081526040808620869055938552525081205550565b6008545f90610e209060019061159a565b5f8381526009602052604081205460088054939450909284908110610e4757610e4761147b565b905f5260205f20015490508060088381548110610e6657610e6661147b565b5f918252602080832090910192909255828152600990915260408082208490558582528120556008805480610e9d57610e9d6115ad565b600190038181905f5260205f20015f9055905550505050565b5f6001610ec2846105b3565b610ecc919061159a565b6001600160a01b039093165f908152600660209081526040808320868452825280832085905593825260079052919091209190915550565b610f0e8383611056565b6104d0335f8585856109e4565b5f8072184f03e93ff9f4daa797ed6e38ed64bf6a1f0160401b8310610f595772184f03e93ff9f4daa797ed6e38ed64bf6a1f0160401b830492506040015b6d04ee2d6d415b85acef81000000008310610f85576d04ee2d6d415b85acef8100000000830492506020015b662386f26fc100008310610fa357662386f26fc10000830492506010015b6305f5e1008310610fbb576305f5e100830492506008015b6127108310610fcf57612710830492506004015b60648310610fe1576064830492506002015b600a83106102fa5760010192915050565b610ffd8383836110b7565b6104d0576001600160a01b03831661102b57604051637e27328960e01b8152600481018290526024016103ea565b60405163177e802f60e01b81526001600160a01b0383166004820152602481018290526044016103ea565b6001600160a01b03821661107f57604051633250574960e11b81525f60048201526024016103ea565b5f61108b83835f610822565b90506001600160a01b038116156104d0576040516339e3563760e11b81525f60048201526024016103ea565b5f6001600160a01b038316158015906108ed5750826001600160a01b0316846001600160a01b031614806110f057506110f08484610761565b806108ed5750505f908152600460205260409020546001600160a01b03908116911614919050565b6001600160e01b03198116811461112d575f5ffd5b50565b5f60208284031215611140575f5ffd5b813561075a81611118565b5f81518084528060208401602086015e5f602082860101526020601f19601f83011685010191505092915050565b602081525f61075a602083018461114b565b5f6020828403121561119b575f5ffd5b5035919050565b80356001600160a01b03811681146111b8575f5ffd5b919050565b5f5f604083850312156111ce575f5ffd5b6111d7836111a2565b946020939093013593505050565b5f5f5f606084860312156111f7575f5ffd5b611200846111a2565b925061120e602085016111a2565b929592945050506040919091013590565b5f6020828403121561122f575f5ffd5b61075a826111a2565b5f5f5f5f5f5f5f5f5f6101008a8c031215611251575f5ffd5b61125a8a6111a2565b985060208a013567ffffffffffffffff811115611275575f5ffd5b8a01601f81018c13611285575f5ffd5b803567ffffffffffffffff81111561129b575f5ffd5b8c60208284010111156112ac575f5ffd5b999c6020919091019b509899604081013599606082013599506080820135985060a0820135975060c0820135965060e090910135945092505050565b5f5f604083850312156112f9575f5ffd5b611302836111a2565b915060208301358015158114611316575f5ffd5b809150509250929050565b634e487b7160e01b5f52604160045260245ffd5b5f5f5f5f60808587031215611348575f5ffd5b611351856111a2565b935061135f602086016111a2565b925060408501359150606085013567ffffffffffffffff811115611381575f5ffd5b8501601f81018713611391575f5ffd5b803567ffffffffffffffff8111156113ab576113ab611321565b604051601f8201601f19908116603f0116810167ffffffffffffffff811182821017156113da576113da611321565b6040528181528282016020018910156113f1575f5ffd5b816020840160208301375f6020838301015280935050505092959194509250565b5f5f60408385031215611423575f5ffd5b61142c836111a2565b915061143a602084016111a2565b90509250929050565b600181811c9082168061145757607f821691505b60208210810361147557634e487b7160e01b5f52602260045260245ffd5b50919050565b634e487b7160e01b5f52603260045260245ffd5b60e081528760e082015287896101008301375f61010089830101525f610100601f19601f8b011683010190508760208301528660408301528560608301528460808301528360a08301528260c08301529998505050505050505050565b634e487b7160e01b5f52601160045260245ffd5b5f60018201611511576115116114ec565b5060010190565b5f81518060208401855e5f93019283525090919050565b5f6108ed61153d8386611518565b84611518565b6001600160a01b03858116825284166020820152604081018390526080606082018190525f906115759083018461114b565b9695505050505050565b5f6020828403121561158f575f5ffd5b815161075a81611118565b818103818111156102fa576102fa6114ec565b634e487b7160e01b5f52603160045260245ffdfea2646970667358221220fb25505884b8f72131238b6a28b0aaceac75e97806968592fe109d22907bb6fa64736f6c634300081b0033","linkReferences":{}},"methodIdentifiers":{"approve(address,uint256)":"095ea7b3","balanceOf(address)":"70a08231","burn(uint256)":"42966c68","exchange()":"d2f7265a","getApproved(uint256)":"081812fc","isApprovedForAll(address,address)":"e985e9c5","mint(address,string,uint256,uint256,uint256,uint256,uint256,uint256)":"930b91d7","name()":"06fdde03","nextId()":"61b8ce8c","ownerOf(uint256)":"6352211e","safeTransferFrom(address,address,uint256)":"42842e0e","safeTransferFrom(address,address,uint256,bytes)":"b88d4fde","setApprovalForAll(address,bool)":"a22cb465","supportsInterface(bytes4)":"01ffc9a7","symbol()":"95d89b41","tokenByIndex(uint256)":"4f6ccce7","tokenOfOwnerByIndex(address,uint256)":"2f745c59","tokenURI(uint256)":"c87b56dd","totalSupply()":"18160ddd","transferFrom(address,address,uint256)":"23b872dd"},"id":38}